00COTAHIST.2017BOVESPA 20171229                                                                                                                                                                                                                      
012017010202AALR3       010ALLIAR      ON      NM   R$  000000000146200000000014880000000001440000000000145800000000014600000000001460000000000147300087000000000000035900000000000052350500000000000000009999123100000010000000000000BRAALRACNOR6100
012017010210ABCB2       010ABC BRASIL  DIR PRE N2   R$  000000000028500000000002850000000000285000000000028500000000002850000000000200000000000000000001000000000000000200000000000000057000000000000000009999123100000010000000000000BRABCBD10PR0126
012017010202ABCB4       010ABC BRASIL  PN  EJS N2   R$  000000000134000000000013520000000001308000000000133000000000013310000000001331000000000133400998000000000000195800000000000260557000000000000000009999123100000010000000000000BRABCBACNPR4127
012017010296ABCB4F      020ABC BRASIL  PN  EJS N2   R$  000000000134500000000013480000000001315000000000132900000000013260000000001326000000000134800020000000000000000582000000000000773943000000000000009999123100000010000000000000BRABCBACNPR4127
012017010212ABCP11      010FII ABC IMOBCI  ER       R$  000000000118300000000011830000000001101000000000116200000000011360000000001138000000000120500019000000000000001210000000000001407143000000000000009999123100000010000000000000BRABCPCTF000255
012017010202ABEV3       010AMBEV S/A   ON  EJ       R$  000000000163400000000016660000000001626000000000164200000000016310000000001631000000000163609421000000000004265400000000007004006700000000000000009999123100000010000000000000BRABEVACNOR1115
012017010296ABEV3F      020AMBEV S/A   ON  EJ       R$  000000000164100000000016660000000001627000000000164500000000016600000000001633000000000166000506000000000000008965000000000014753680000000000000009999123100000010000000000000BRABEVACNOR1115
012017010262ABEV3T      030AMBEV S/A   ON  EJ    016R$  000000000165500000000016560000000001649000000000165300000000016500000000000000000000000000000006000000000000001300000000000002149105000000000000009999123100000010000000000000BRABEVACNOR1115
012017010262ABEV3T      030AMBEV S/A   ON  EJ    045R$  000000000165600000000016570000000001656000000000165600000000016570000000000000000000000000000002000000000000000300000000000000496824000000000000009999123100000010000000000000BRABEVACNOR1115
012017010262ABEV3T      030AMBEV S/A   ON  EJ    060R$  000000000169100000000016940000000001691000000000169200000000016940000000000000000000000000000004000000000000006000000000000010157990000000000000009999123100000010000000000000BRABEVACNOR1115
012017010278ABEVA1      070ABEVE   /EJ ON        000R$  000000000001900000000000300000000000019000000000002700000000000200000000000008000000000004000005000000000000033900000000000000938000000000000166602017011600000010000000000000BRABEVACNOR1111
012017010278ABEVA16     070ABEV  FM/EJ ON        000R$  000000000006500000000000860000000000060000000000007600000000000610000000000050000000000008700016000000000000067800000000000005181900000000000159102017011600000010000000000000BRABEVACNOR1113
012017010278ABEVA17     070ABEV  FM/EJ ON        000R$  000000000001100000000000220000000000011000000000001300000000000120000000000011000000000001400038000000000000122500000000000001707800000000000169102017011600000010000000000000BRABEVACNOR1113
012017010278ABEVA19     070ABEV    /EJ ON        000R$  000000000000200000000000020000000000002000000000000200000000000020000000000001000000000000200003000000000000028000000000000000056000000000000189102017011600000010000000000000BRABEVACNOR1113
012017010278ABEVA20     070ABEV    /EJ ON        000R$  000000000000100000000000010000000000001000000000000100000000000010000000000000000000000000200001000000000000000100000000000000000100000000000199102017011600000010000000000000BRABEVACNOR1113
012017010278ABEVA46     070ABEV  FM/EJ ON        000R$  000000000002800000000000470000000000028000000000003300000000000280000000000000000000000003800015000000000000076900000000000002603300000000000164102017011600000010000000000000BRABEVACNOR1113
012017010278ABEVA47     070ABEV  FM/EJ ON        000R$  000000000000700000000000070000000000006000000000000600000000000060000000000001000000000000700005000000000000047900000000000000333600000000000174102017011600000010000000000000BRABEVACNOR1113
012017010278ABEVA68     070ABEVE   /EJ ON        000R$  000000000000500000000000050000000000005000000000000500000000000050000000000000000000000000700001000000000000002700000000000000013500000000000176602017011600000010000000000000BRABEVACNOR1111
012017010278ABEVA76     070ABEVE   /EJ ON        000R$  000000000004400000000000610000000000044000000000005000000000000610000000000000000000000000000007000000000000009200000000000000463400000000000161602017011600000010000000000000BRABEVACNOR1114
012017010278ABEVA77     070ABEVE   /EJ ON        000R$  000000000000900000000000150000000000009000000000001200000000000150000000000001000000000003000006000000000000025000000000000000306000000000000171602017011600000010000000000000BRABEVACNOR1111
012017010278ABEVB16     070ABEV  FM/EJ ON        000R$  000000000010500000000001140000000000092000000000010000000000000920000000000000000000000020000005000000000000007100000000000000714900000000000159102017022000000010000000000000BRABEVACNOR1114
012017010278ABEVB28     070ABEV  FM/EJ ON        000R$  000000000002400000000000240000000000022000000000002200000000000220000000000000000000000002200006000000000000049200000000000001108900000000000174102017022000000010000000000000BRABEVACNOR1111
012017010278ABEVB88     070ABEVE   /EJ ON        000R$  000000000001300000000000130000000000013000000000001300000000000130000000000008000000000000000001000000000000003800000000000000049400000000000181602017022000000010000000000000BRABEVACNOR1111
012017010278ABEVB98     070ABEV    /EJ ON        000R$  000000000001200000000000200000000000012000000000001400000000000190000000000011000000000000000004000000000000020300000000000000293800000000000179102017022000000010000000000000BRABEVACNOR1112
012017010278ABEVD79     070ABEV    /EJ ON        000R$  000000000002600000000000260000000000025000000000002500000000000250000000000024000000000000000004000000000000003000000000000000076500000000000185202017041700000010000000000000BRABEVACNOR1112
012017010282ABEVM1      080ABEVE   /EJ ON        000R$  000000000002500000000000320000000000025000000000002800000000000320000000000026000000000000000002000000000000004400000000000000124000000000000166602017011600000010000000000000BRABEVACNOR1111
012017010282ABEVM15     080ABEVE   /EJ ON        000R$  000000000000100000000000010000000000001000000000000100000000000010000000000000000000000000700002000000000000006900000000000000006900000000000149102017011600000010000000000000BRABEVACNOR1113
012017010282ABEVM45     080ABEVE FM/EJ ON        000R$  000000000000400000000000040000000000002000000000000200000000000030000000000002000000000001800014000000000000116000000000000000337800000000000154102017011600000010000000000000BRABEVACNOR1113
012017010282ABEVM46     080ABEVE FM/EJ ON        000R$  000000000003200000000000320000000000017000000000002800000000000170000000000017000000000003400011000000000000040300000000000001145300000000000164102017011600000010000000000000BRABEVACNOR1113
012017010282ABEVM75     080ABEVE   /EJ ON        000R$  000000000000600000000000060000000000006000000000000600000000000060000000000000000000000001100002000000000000004500000000000000027000000000000156602017011600000010000000000000BRABEVACNOR1114
012017010282ABEVM76     080ABEVE   /EJ ON        000R$  000000000001000000000000110000000000010000000000001000000000000110000000000000000000000004000004000000000000002700000000000000027300000000000161602017011600000010000000000000BRABEVACNOR1114
012017010282ABEVN87     080ABEVE FM/EJ ON        000R$  000000000003200000000000320000000000032000000000003200000000000320000000000030000000000000000001000000000000002000000000000000064000000000000164102017022000000010000000000000BRABEVACNOR1111
012017010202ADHM3       010ADVANCED-DH ON           R$  000000000008100000000000830000000000076000000000007800000000000790000000000078000000000007900066000000000000068600000000000005407500000000000000009999123100000010000000000000BRADHMACNOR9100
012017010212AEFI11      010FII AESAPAR CI  ER       R$  000000001350000000000137000000000013460000000001359200000000134600000000013460000000001369800021000000000000000260000000000003533924000000000000009999123100000010000000000000BRAEFICTF002161
012017010202AFLT3       010AFLUENTE T  ON           R$  000000000031800000000003180000000000318000000000031800000000003180000000000317000000000034600001000000000000000100000000000000031800000000000000009999123100000010000000000000BRAFLTACNOR1109
012017010212AGCX11      010FII AG CAIXACI  ER       R$  000000012219800000001240000000000122000000000012337600000001230000000000122805000000012359900040000000000000000277000000000034175243000000000000009999123100000010000000000000BRAGCXCTF003150
012017010202AGRO3       010BRASILAGRO  ON      NM   R$  000000000110400000000011080000000001092000000000110000000000010950000000001092000000000109700099000000000000033100000000000036428500000000000000009999123100000010000000000000BRAGROACNOR7106
012017010296AGRO3F      020BRASILAGRO  ON      NM   R$  000000000113700000000011370000000001095000000000110400000000010950000000001007000000000113600012000000000000000310000000000000342447000000000000009999123100000010000000000000BRAGROACNOR7106
012017010212ALMI11B     010FII TORRE ALCI  ER  MB   R$  000000018495000000001849500000000175000000000017871400000001799000000000180800000000018589900030000000000000000052000000000009293155000000000000009999123100000010000000000000BRALMICTF003245
012017010202ALPA3       010ALPARGATAS  ON      N1   R$  000000000089400000000009200000000000872000000000090200000000008720000000000872000000000087900009000000000000001800000000000001624600000000000000009999123100000010000000000000BRALPAACNOR0219
012017010296ALPA3F      020ALPARGATAS  ON      N1   R$  000000000081300000000008130000000000813000000000081300000000008130000000000813000000000092000001000000000000000006000000000000004878000000000000009999123100000010000000000000BRALPAACNOR0219
012017010202ALPA4       010ALPARGATAS  PN      N1   R$  000000000100100000000010050000000000984000000000099000000000009840000000000984000000000098500514000000000000117800000000000116724400000000000000009999123100000010000000000000BRALPAACNPR7219
012017010296ALPA4F      020ALPARGATAS  PN      N1   R$  000000000099600000000009960000000000989000000000099200000000009940000000000990000000000103700007000000000000000153000000000000151872000000000000009999123100000010000000000000BRALPAACNPR7219
012017010202ALSC3       010ALIANSCE    ON      NM   R$  000000000144100000000014740000000001431000000000146200000000014690000000001463000000000146901784000000000000441800000000000646043700000000000000009999123100000010000000000000BRALSCACNOR0110
012017010296ALSC3F      020ALIANSCE    ON      NM   R$  000000000146100000000014680000000001456000000000146400000000014560000000001430000000000166800018000000000000000448000000000000656143000000000000009999123100000010000000000000BRALSCACNOR0110
012017010262ALSC3T      030ALIANSCE    ON      NM091R$  000000000151000000000015110000000001510000000000151000000000015110000000000000000000000000000002000000000000008000000000000012084442000000000000009999123100000010000000000000BRALSCACNOR0110
012017010202ALUP11      010ALUPAR      UNT     N2   R$  000000000168900000000017420000000001681000000000169900000000017170000000001713000000000171802271000000000000658400000000001118857200000000000000009999123100000010000000000000BRALUPCDAM15105
012017010296ALUP11F     020ALUPAR      UNT     N2   R$  000000000168300000000017150000000001682000000000169100000000017150000000001650000000000171500043000000000000000667000000000001128391000000000000009999123100000010000000000000BRALUPCDAM15105
012017010202AMAR3       010LOJAS MARISAON      NM   R$  000000000059600000000006380000000000590000000000061900000000006380000000000605000000000063900039000000000000035300000000000021873800000000000000009999123100000010000000000000BRAMARACNOR4112
012017010262AMAR3T      030LOJAS MARISAON      NM030R$  000000000060300000000006040000000000603000000000060300000000006040000000000000000000000000000002000000000000010000000000000006035096000000000000009999123100000010000000000000BRAMARACNOR4112
012017010202ANIM3       010ANIMA       ON      NM   R$  000000000135600000000013700000000001325000000000134800000000013250000000001325000000000136500122000000000000023400000000000031544600000000000000009999123100000010000000000000BRANIMACNOR6103
012017010296ANIM3F      020ANIMA       ON      NM   R$  000000000136300000000013630000000001363000000000136300000000013630000000001305000000000136300003000000000000000015000000000000020445000000000000009999123100000010000000000000BRANIMACNOR6103
012017010202ARZZ3       010AREZZO CO   ON      NM   R$  000000000250600000000025060000000002441000000000248600000000025050000000002467000000000250500210000000000000060200000000000149698900000000000000009999123100000010000000000000BRARZZACNOR3123
012017010296ARZZ3F      020AREZZO CO   ON      NM   R$  000000000248000000000025120000000002470000000000249500000000024700000000002310000000000250000014000000000000000309000000000000771113000000000000009999123100000010000000000000BRARZZACNOR3123
012017010208ATOM3       010ATOMPAR     ON           R$  000000000030500000000003050000000000294000000000030200000000003050000000000300000000000030500017000000000000003500000000000001057100000000000000009999123100000010000000000000BRATOMACNOR1102
012017010296ATOM3F      020ATOMPAR     ON           R$  000000000029000000000002900000000000290000000000029000000000002900000000000280000000000030500003000000000000000040000000000000011600000000000000009999123100000010000000000000BRATOMACNOR1102
012017010202AZEV4       010AZEVEDO     PN           R$  000000000010200000000001050000000000101000000000010200000000001050000000000102000000000010500003000000000000001400000000000000143600000000000000009999123100000010000000000000BRAZEVACNPR7116
012017010202BAUH4       010EXCELSIOR   PN           R$  000000000094700000000009470000000000947000000000094700000000009470000000000850000000000094000001000000000000000100000000000000094700000000000000009999123100000010000000000000BRBAUHACNPR3111
012017010202BAZA3       010AMAZONIA    ON           R$  000000000299900000000029990000000002999000000000299900000000029990000000002810000000000296900001000000000000000100000000000000299900000000000000009999123100000010000000000000BRBAZAACNOR0170
012017010296BAZA3F      020AMAZONIA    ON           R$  000000000280100000000028010000000002800000000000280000000000028000000000002802000000000294900003000000000000000040000000000000112010000000000000009999123100000010000000000000BRBAZAACNOR0170
012017010202BBAS3       010BRASIL      ON      NM   R$  000000000279000000000027960000000002744000000000276700000000027540000000002754000000000275504784000000000001968200000000005447066500000000000000009999123100000010000000000000BRBBASACNOR3265
012017010296BBAS3F      020BRASIL      ON      NM   R$  000000000280900000000028090000000002742000000000277000000000027690000000002758000000000276900261000000000000004871000000000013494729000000000000009999123100000010000000000000BRBBASACNOR3265
012017010262BBAS3T      030BRASIL      ON      NM016R$  000000000277100000000027720000000002771000000000277100000000027720000000000000000000000000000002000000000000010000000000000027713977000000000000009999123100000010000000000000BRBBASACNOR3265
012017010262BBAS3T      030BRASIL      ON      NM017R$  000000000280100000000028020000000002801000000000280100000000028020000000000000000000000000000002000000000000000800000000000002241179000000000000009999123100000010000000000000BRBBASACNOR3265
012017010262BBAS3T      030BRASIL      ON      NM030R$  000000000281900000000028200000000002793000000000281600000000027940000000000000000000000000000006000000000000004100000000000011547257000000000000009999123100000010000000000000BRBBASACNOR3265
012017010262BBAS3T      030BRASIL      ON      NM060R$  000000000284400000000028450000000002818000000000282800000000028190000000000000000000000000000004000000000000000800000000000002262618000000000000009999123100000010000000000000BRBBASACNOR3265
012017010278BBASA25     070BBAS        ON      NM000R$  000000000026000000000002600000000000260000000000026000000000002600000000000200000000000027000001000000000000001000000000000000260000000000000252202017011600000010000000000000BRBBASACNOR3263
012017010278BBASA26     070BBAS        ON      NM000R$  000000000015600000000001560000000000140000000000015000000000001480000000000015000000000014900005000000000000004100000000000000616800000000000267202017011600000010000000000000BRBBASACNOR3263
012017010278BBASA27     070BBAS        ON      NM000R$  000000000011700000000001260000000000101000000000011900000000001070000000000101000000000011000016000000000000025600000000000003047000000000000272202017011600000010000000000000BRBBASACNOR3263
012017010278BBASA28     070BBAS        ON      NM000R$  000000000006200000000000680000000000051000000000005800000000000540000000000051000000000006000051000000000000296600000000000017478300000000000282202017011600000010000000000000BRBBASACNOR3263
012017010278BBASA29     070BBAS        ON      NM000R$  000000000002800000000000310000000000024000000000002700000000000250000000000024000000000002700055000000000000269400000000000007409400000000000292202017011600000010000000000000BRBBASACNOR3263
012017010278BBASA30     070BBAS        ON      NM000R$  000000000001400000000000140000000000010000000000001000000000000120000000000010000000000001200030000000000000179900000000000001923400000000000302202017011600000010000000000000BRBBASACNOR3263
012017010278BBASA31     070BBAS        ON      NM000R$  000000000000100000000000040000000000001000000000000300000000000020000000000001000000000000500006000000000000020400000000000000071100000000000312202017011600000010000000000000BRBBASACNOR3263
012017010278BBASA32     070BBAS        ON      NM000R$  000000000000300000000000030000000000003000000000000300000000000030000000000001000000000000300001000000000000000300000000000000000900000000000322202017011600000010000000000000BRBBASACNOR3263
012017010278BBASA33     070BBAS        ON      NM000R$  000000000000100000000000010000000000001000000000000100000000000010000000000000000000000000100012000000000000079700000000000000079700000000000332202017011600000010000000000000BRBBASACNOR3264
012017010278BBASA56     070BBAS        ON      NM000R$  000000000018000000000001800000000000180000000000018000000000001800000000000001000000000180000004000000000000004000000000000000720000000000000262202017011600000010000000000000BRBBASACNOR3261
012017010278BBASA57     070BBAS  FM    ON      NM000R$  000000000009100000000000910000000000075000000000008500000000000750000000000009000000000010500016000000000000035800000000000003059600000000000277202017011600000010000000000000BRBBASACNOR3263
012017010278BBASA58     070BBAS  FM    ON      NM000R$  000000000004300000000000430000000000035000000000003800000000000350000000000035000000000003900026000000000000021200000000000000822500000000000287202017011600000010000000000000BRBBASACNOR3263
012017010278BBASA6      070BBASE       ON      NM000R$  000000000001200000000000120000000000012000000000001200000000000120000000000000000000000000000004000000000000030000000000000000360000000000000299702017011600000010000000000000BRBBASACNOR3263
012017010278BBASA72     070BBAS        ON      NM000R$  000000000000200000000000020000000000002000000000000200000000000020000000000001000000000004700001000000000000001000000000000000002000000000000327202017011600000010000000000000BRBBASACNOR3263
012017010278BBASA88     070BBASE       ON      NM000R$  000000000005400000000000540000000000044000000000005000000000000440000000000036000000000000000002000000000000001300000000000000065200000000000284702017011600000010000000000000BRBBASACNOR3263
012017010278BBASB1      070BBAS  FM    ON      NM000R$  000000000006400000000000640000000000064000000000006400000000000640000000000000000000000000000001000000000000001000000000000000064000000000000307202017022000000010000000000000BRBBASACNOR3263
012017010278BBASB11     070BBASE       ON      NM000R$  000000000006200000000000630000000000062000000000006200000000000630000000000000000000000000000004000000000000040000000000000002483900000000000309702017022000000010000000000000BRBBASACNOR3263
012017010278BBASB27     070BBAS        ON      NM000R$  000000000020400000000002040000000000190000000000019900000000001900000000000000000000000022000003000000000000001600000000000000318400000000000272202017022000000010000000000000BRBBASACNOR3263
012017010278BBASB28     070BBAS        ON      NM000R$  000000000015500000000001550000000000143000000000014900000000001430000000000135000000000000000005000000000000006800000000000001018400000000000282202017022000000010000000000000BRBBASACNOR3263
012017010278BBASB29     070BBAS        ON      NM000R$  000000000010800000000001110000000000096000000000009700000000000960000000000088000000000011100021000000000000030600000000000002987800000000000292202017022000000010000000000000BRBBASACNOR3263
012017010278BBASB32     070BBAS        ON      NM000R$  000000000003600000000000360000000000036000000000003600000000000360000000000011000000000006900002000000000000000800000000000000028800000000000322202017022000000010000000000000BRBBASACNOR3263
012017010278BBASB33     070BBAS        ON      NM000R$  000000000002500000000000250000000000025000000000002500000000000250000000000001000000000000000002000000000000000500000000000000012500000000000332202017022000000010000000000000BRBBASACNOR3263
012017010278BBASB57     070BBAS  FM    ON      NM000R$  000000000017800000000001780000000000171000000000017400000000001710000000000000000000000000000002000000000000001900000000000000331200000000000277202017022000000010000000000000BRBBASACNOR3263
012017010278BBASB61     070BBAS        ON      NM000R$  000000000005000000000000500000000000040000000000004300000000000410000000000041000000000004400058000000000000041400000000000001783300000000000317202017022000000010000000000000BRBBASACNOR3263
012017010278BBASB67     070BBASE       ON      NM000R$  000000000021600000000002160000000000216000000000021600000000002160000000000000000000000000000001000000000000001900000000000000410400000000000269702017022000000010000000000000BRBBASACNOR3263
012017010278BBASC28     070BBAS        ON      NM000R$  000000000019900000000001990000000000181000000000019800000000001810000000000000000000000000000002000000000000001900000000000000376300000000000282202017032000000010000000000000BRBBASACNOR3264
012017010278BBASC29     070BBAS        ON      NM000R$  000000000014300000000001430000000000143000000000014300000000001430000000000069000000000017100001000000000000000200000000000000028600000000000292202017032000000010000000000000BRBBASACNOR3264
012017010278BBASC30     070BBAS        ON      NM000R$  000000000011000000000001100000000000110000000000011000000000001100000000000000000000000000000001000000000000001000000000000000110000000000000302202017032000000010000000000000BRBBASACNOR3264
012017010278BBASC31     070BBAS        ON      NM000R$  000000000008800000000000880000000000083000000000008700000000000830000000000014000000000000000005000000000000040500000000000003561500000000000312202017032000000010000000000000BRBBASACNOR3264
012017010278BBASC70     070BBASE       ON      NM000R$  000000000012700000000001280000000000120000000000012400000000001200000000000001000000000000000013000000000000093000000000000011552000000000000299702017032000000010000000000000BRBBASACNOR3263
012017010282BBASM13     080BBASE       ON      NM000R$  000000000000500000000000050000000000005000000000000500000000000050000000000002000000000000000003000000000000015000000000000000075000000000000232202017011600000010000000000000BRBBASACNOR3263
012017010282BBASM21     080BBASE       ON      NM000R$  000000000000300000000000030000000000003000000000000300000000000030000000000001000000000000400001000000000000004000000000000000012000000000000212202017011600000010000000000000BRBBASACNOR3263
012017010282BBASM23     080BBASE       ON      NM000R$  000000000000500000000000050000000000005000000000000500000000000050000000000002000000000000500002000000000000008200000000000000041000000000000227202017011600000010000000000000BRBBASACNOR3261
012017010282BBASM24     080BBASE       ON      NM000R$  000000000000900000000000100000000000009000000000000900000000000100000000000007000000000001200006000000000000012000000000000000118000000000000242202017011600000010000000000000BRBBASACNOR3263
012017010282BBASM25     080BBASE       ON      NM000R$  000000000001700000000000190000000000016000000000001800000000000160000000000015000000000001800004000000000000017100000000000000313600000000000252202017011600000010000000000000BRBBASACNOR3263
012017010282BBASM26     080BBASE FM    ON      NM000R$  000000000003700000000000480000000000037000000000004100000000000430000000000037000000000000000027000000000000047400000000000001972500000000000267202017011600000010000000000000BRBBASACNOR3263
012017010282BBASM27     080BBASE       ON      NM000R$  000000000005500000000000650000000000051000000000005500000000000650000000000058000000000010000012000000000000048500000000000002674200000000000272202017011600000010000000000000BRBBASACNOR3263
012017010282BBASM28     080BBASE       ON      NM000R$  000000000010100000000001070000000000090000000000009900000000001070000000000000000000000040000004000000000000006000000000000000598500000000000282202017011600000010000000000000BRBBASACNOR3263
012017010282BBASM55     080BBASE       ON      NM000R$  000000000002400000000000250000000000024000000000002400000000000240000000000010000000000002400005000000000000026500000000000000640000000000000257202017011600000010000000000000BRBBASACNOR3263
012017010282BBASM56     080BBASE       ON      NM000R$  000000000003000000000000350000000000030000000000003100000000000330000000000000000000000003600018000000000000021600000000000000678000000000000262202017011600000010000000000000BRBBASACNOR3261
012017010282BBASM57     080BBASE       ON      NM000R$  000000000007300000000000830000000000073000000000007800000000000830000000000000000000000000000002000000000000005000000000000000390000000000000277202017011600000010000000000000BRBBASACNOR3263
012017010282BBASM61     080BBASE       ON      NM000R$  000000000000200000000000020000000000002000000000000200000000000020000000000000000000000001500001000000000000010000000000000000020000000000000209702017011600000010000000000000BRBBASACNOR3263
012017010282BBASM63     080BBASE       ON      NM000R$  000000000000600000000000060000000000006000000000000600000000000060000000000001000000000001500002000000000000004500000000000000027000000000000229702017011600000010000000000000BRBBASACNOR3263
012017010282BBASM65     080BBASE       ON      NM000R$  000000000001100000000000110000000000011000000000001100000000000110000000000012000000000002800001000000000000000600000000000000006600000000000249702017011600000010000000000000BRBBASACNOR3263
012017010282BBASM75     080BBASE       ON      NM000R$  000000000002800000000000280000000000028000000000002800000000000280000000000000000000000000000005000000000000005400000000000000151200000000000259702017011600000010000000000000BRBBASACNOR3265
012017010282BBASM79     080BBASE       ON      NM000R$  000000000000100000000000010000000000001000000000000100000000000010000000000000000000000000100001000000000000028300000000000000028300000000000189702017011600000010000000000000BRBBASACNOR3263
012017010282BBASM86     080BBASE       ON      NM000R$  000000000003600000000000380000000000035000000000003500000000000380000000000036000000000004200005000000000000031100000000000001107600000000000264702017011600000010000000000000BRBBASACNOR3263
012017010282BBASM98     080BBASE FM    ON      NM000R$  000000000008700000000000980000000000087000000000009200000000000980000000000000000000000000000003000000000000003600000000000000333000000000000279702017011600000010000000000000BRBBASACNOR3263
012017010282BBASN21     080BBASE       ON      NM000R$  000000000001200000000000120000000000012000000000001200000000000120000000000002000000000000000001000000000000004000000000000000048000000000000212202017022000000010000000000000BRBBASACNOR3263
012017010282BBASN22     080BBASE       ON      NM000R$  000000000002000000000000200000000000020000000000002000000000000200000000000001000000000000000001000000000000004000000000000000080000000000000222202017022000000010000000000000BRBBASACNOR3263
012017010282BBASN23     080BBASE       ON      NM000R$  000000000002800000000000280000000000028000000000002800000000000280000000000000000000000029900006000000000000004000000000000000112000000000000232202017022000000010000000000000BRBBASACNOR3263
012017010282BBASN24     080BBASE       ON      NM000R$  000000000004000000000000400000000000040000000000004000000000000400000000000010000000000000000002000000000000002000000000000000080000000000000242202017022000000010000000000000BRBBASACNOR3263
012017010282BBASN25     080BBASE       ON      NM000R$  000000000006000000000000600000000000060000000000006000000000000600000000000000000000000006500001000000000000005000000000000000300000000000000252202017022000000010000000000000BRBBASACNOR3263
012017010282BBASN26     080BBASE       ON      NM000R$  000000000008200000000000820000000000082000000000008200000000000820000000000000000000000000000002000000000000003500000000000000287000000000000262202017022000000010000000000000BRBBASACNOR3263
012017010282BBASN28     080BBASE       ON      NM000R$  000000000016800000000001680000000000168000000000016800000000001680000000000135000000000000000001000000000000005000000000000000840000000000000282202017022000000010000000000000BRBBASACNOR3263
012017010282BBASN57     080BBASE       ON      NM000R$  000000000013200000000001320000000000132000000000013200000000001320000000000000000000000000000001000000000000016700000000000002204400000000000277202017022000000010000000000000BRBBASACNOR3263
012017010282BBASN72     080BBASE       ON      NM000R$  000000000002800000000000280000000000028000000000002800000000000280000000000020000000000014500001000000000000001000000000000000028000000000000224702017022000000010000000000000BRBBASACNOR3261
012017010282BBASN74     080BBASE       ON      NM000R$  000000000004500000000000450000000000045000000000004500000000000450000000000010000000000000000005000000000000003000000000000000135000000000000244702017022000000010000000000000BRBBASACNOR3261
012017010282BBASO26     080BBASE       ON      NM000R$  000000000010200000000001020000000000102000000000010200000000001020000000000000000000000000000001000000000000000300000000000000030600000000000262202017032000000010000000000000BRBBASACNOR3264
012017010282BBASO27     080BBASE       ON      NM000R$  000000000013700000000001370000000000137000000000013700000000001370000000000000000000000000000001000000000000003000000000000000411000000000000272202017032000000010000000000000BRBBASACNOR3264
012017010202BBDC3       010BRADESCO    ON  EJ  N1   R$  000000000288200000000029280000000002864000000000289300000000028820000000002882000000000288703776000000000000551400000000001595379700000000000000009999123100000010000000000000BRBBDCACNOR1658
012017010296BBDC3F      020BRADESCO    ON  EJ  N1   R$  000000000290900000000029200000000002802000000000289500000000028810000000002881000000000290000168000000000000002759000000000007988851000000000000009999123100000010000000000000BRBBDCACNOR1658
012017010202BBDC4       010BRADESCO    PN  EJ  N1   R$  000000000287700000000028800000000002850000000000286700000000028800000000002880000000000288108908000000000002690000000000007713604900000000000000009999123100000010000000000000BRBBDCACNPR8658
012017010296BBDC4F      020BRADESCO    PN  EJ  N1   R$  000000000289900000000029000000000002850000000000286900000000029000000000002876000000000290000562000000000000005758000000000016523646000000000000009999123100000010000000000000BRBBDCACNPR8658
012017010262BBDC4T      030BRADESCO    PN  EJ  N1016R$  000000000287200000000028730000000002872000000000287200000000028730000000000000000000000000000002000000000000010000000000000028727825000000000000009999123100000010000000000000BRBBDCACNPR8658
012017010262BBDC4T      030BRADESCO    PN  EJ  N1030R$  000000000288900000000029030000000002889000000000289500000000028950000000000000000000000000000006000000000000001100000000000003185468000000000000009999123100000010000000000000BRBBDCACNPR8658
012017010262BBDC4T      030BRADESCO    PN  EJ  N1045R$  000000000289800000000028990000000002898000000000289800000000028990000000000000000000000000000002000000000000002000000000000005797546000000000000009999123100000010000000000000BRBBDCACNPR8658
012017010278BBDCA23     070BBDC    /EJ PN      N1000R$  000000000018200000000001840000000000182000000000018300000000001840000000000000000000000000000002000000000000002600000000000000477200000000000272502017011600000010000000000000BRBBDCACNPR8655
012017010278BBDCA29     070BBDC  FM/EJ PN      N1000R$  000000000004500000000000450000000000038000000000004400000000000380000000000040000000000005000005000000000000203400000000000009131200000000000293102017011600000010000000000000BRBBDCACNPR8655
012017010278BBDCA31     070BBDC  FM/EJ PN      N1000R$  000000000000700000000000070000000000007000000000000700000000000070000000000001000000000004000001000000000000001000000000000000007000000000000311302017011600000010000000000000BRBBDCACNPR8655
012017010278BBDCA32     070BBDC    /EJ PN      N1000R$  000000000000200000000000020000000000002000000000000200000000000020000000000000000000000000400005000000000000051300000000000000102600000000000321302017011600000010000000000000BRBBDCACNPR8655
012017010278BBDCA33     070BBDC    /EJ PN      N1000R$  000000000008500000000000850000000000080000000000008300000000000850000000000082000000000010000039000000000000082000000000000006870000000000000284102017011600000010000000000000BRBBDCACNPR8655
012017010278BBDCA42     070BBDCE   /EJ PN      N1000R$  000000000003000000000000330000000000030000000000003200000000000330000000000000000000000000000004000000000000006700000000000000218100000000000295602017011600000010000000000000BRBBDCACNPR8655
012017010278BBDCA43     070BBDCE   /EJ PN      N1000R$  000000000001300000000000130000000000013000000000001300000000000130000000000000000000000000000001000000000000000400000000000000005200000000000305602017011600000010000000000000BRBBDCACNPR8655
012017010278BBDCA51     070BBDC    /EJ PN      N1000R$  000000000000400000000000040000000000004000000000000400000000000040000000000001000000000002000001000000000000000200000000000000000800000000000316302017011600000010000000000000BRBBDCACNPR8655
012017010278BBDCA60     070BBDC  FM/EJ PN      N1000R$  000000000003400000000000340000000000026000000000003000000000000260000000000026000000000003800003000000000000002400000000000000073000000000000298102017011600000010000000000000BRBBDCACNPR8655
012017010278BBDCA63     070BBDCE   /EJ PN      N1000R$  000000000005600000000000560000000000049000000000005300000000000560000000000000000000000031000022000000000000150500000000000008020060000000000290602017011600000010000000000000BRBBDCACNPR8646
012017010278BBDCA70     070BBDC    /EJ PN      N1000R$  000000000001800000000000190000000000018000000000001800000000000190000000000000000000000002500008000000000000211200000000000003812800000000000303102017011600000010000000000000BRBBDCACNPR8655
012017010278BBDCA77     070BBDC    /EJ PN      N1000R$  000000000021100000000002120000000000204000000000020900000000002040000000000210000000000000000003000000000000000300000000000000062700000000000267502017011600000010000000000000BRBBDCACNPR8655
012017010278BBDCA78     070BBDC  FM/EJ PN      N1000R$  000000000013000000000001350000000000129000000000012900000000001340000000000115000000000000000008000000000000416700000000000054025300000000000277502017011600000010000000000000BRBBDCACNPR8655
012017010278BBDCA84     070BBDC    /EJ PN      N1000R$  000000000000100000000000010000000000001000000000000100000000000010000000000000000000000000000001000000000000002000000000000000002000000000000326302017011600000010000000000000BRBBDCACNPR8656
012017010278BBDCA93     070BBDCE   /EJ PN      N1000R$  000000000000100000000000010000000000001000000000000100000000000010000000000000000000000003200001000000000000002500000000000000002500000000000328802017011600000010000000000000BRBBDCACNPR8652
012017010278BBDCB29     070BBDC  FM/EJ PN      N1000R$  000000000012400000000001320000000000121000000000012600000000001300000000000000000000000000000040000000000000015100000000000001910000000000000290002017022000000010000000000000BRBBDCACNPR8653
012017010278BBDCB43     070BBDC    /EJ PN      N1000R$  000000000002900000000000290000000000029000000000002900000000000290000000000000000000000000000001000000000000002000000000000000058000000000000320002017022000000010000000000000BRBBDCACNPR8656
012017010278BBDCB44     070BBDC  FM/EJ PN      N1000R$  000000000018000000000001930000000000180000000000018700000000001890000000000000000000000000000024000000000000005800000000000001089200000000000280002017022000000010000000000000BRBBDCACNPR8657
012017010278BBDCB45     070BBDC  FM/EJ PN      N1000R$  000000000008300000000000860000000000082000000000008300000000000860000000000000000000000000000004000000000000002500000000000000207600000000000300002017022000000010000000000000BRBBDCACNPR8657
012017010278BBDCB61     070BBDCE   /EJ PN      N1000R$  000000000024000000000002420000000000240000000000024100000000002420000000000000000000000029500002000000000000002600000000000000628000000000000272502017022000000010000000000000BRBBDCACNPR8645
012017010278BBDCB92     070BBDCE   /EJ PN      N1000R$  000000000089100000000008910000000000891000000000089100000000008910000000000000000000000000000001000000000000060610000000000054003510000000000199702017022000000010000000000000BRBBDCACNPR8642
012017010278BBDCC60     070BBDC    /EJ PN      N1000R$  000000000013000000000001300000000000120000000000012600000000001280000000000000000000000000000003000000000000000800000000000000101000000000000299702017032000000010000000000000BRBBDCACNPR8657
012017010278BBDCC78     070BBDCE   /EJ PN      N1000R$  000000000070000000000007000000000000700000000000070000000000007000000000000000000000000000000001000000000000022880000000000016016000000000000222602017032000000010000000000000BRBBDCACNPR8644
012017010278BBDCC95     070BBDCE   /EJ ON      N1000R$  000000000006000000000000600000000000060000000000006000000000000600000000000015000000000000000002000000000000001400000000000000084000000000000315402017032000000010000000000000BRBBDCACNOR1645
012017010278BBDCF62     070BBDCE   /EJ PN      N1000R$  000000000032200000000003220000000000322000000000032200000000003220000000000000000000000000000001000000000000001000000000000000322000000000000282102017061900000010000000000000BRBBDCACNPR8645
012017010278BBDCL2      070BBDCE   /EJ PN      N1000R$  000000000070700000000007070000000000707000000000070700000000007070000000000000000000000000000002000000000000022900000000000016190300000000000242202017121800000010000000000000BRBBDCACNPR8657
012017010278BBDCL32     070BBDCE   /EJ PN      N1000R$  000000000089600000000008960000000000896000000000089600000000008960000000000000000000000000000001000000000000060600000000000054297600000000000215402017121800000010000000000000BRBBDCACNPR8652
012017010282BBDCM23     080BBDCE   /EJ PN      N1000R$  000000000002000000000000200000000000020000000000002000000000000200000000000012000000000001900001000000000000003900000000000000078000000000000272502017011600000010000000000000BRBBDCACNPR8655
012017010282BBDCM33     080BBDCE   /EJ PN      N1000R$  000000000005500000000000550000000000055000000000005500000000000550000000000044000000000008600003000000000000005000000000000000275000000000000284102017011600000010000000000000BRBBDCACNPR8655
012017010282BBDCM62     080BBDCE   /EJ PN      N1000R$  000000000004600000000000460000000000044000000000004500000000000440000000000036000000000000000002000000000000002100000000000000094600000000000281602017011600000010000000000000BRBBDCACNPR8646
012017010282BBDCM63     080BBDCE FM/EJ PN      N1000R$  000000000008800000000000880000000000088000000000008800000000000880000000000000000000000009100002000000000000005000000000000000440000000000000290602017011600000010000000000000BRBBDCACNPR8646
012017010282BBDCM77     080BBDCE FM/EJ PN      N1000R$  000000000001200000000000150000000000012000000000001400000000000150000000000012000000000001600004000000000000231700000000000003470400000000000267502017011600000010000000000000BRBBDCACNPR8655
012017010282BBDCM78     080BBDCE FM/EJ PN      N1000R$  000000000002900000000000340000000000028000000000002900000000000310000000000000000000000008800014000000000000280000000000000008380000000000000277502017011600000010000000000000BRBBDCACNPR8655
012017010282BBDCN29     080BBDCE FM/EJ PN      N1000R$  000000000012200000000001230000000000113000000000011500000000001150000000000000000000000000000037000000000000010000000000000001158300000000000290002017022000000010000000000000BRBBDCACNPR8653
012017010282BBDCN44     080BBDCE FM/EJ PN      N1000R$  000000000008000000000000810000000000074000000000007600000000000750000000000000000000000000000019000000000000004700000000000000359800000000000280002017022000000010000000000000BRBBDCACNPR8657
012017010282BBDCN45     080BBDCE FM/EJ PN      N1000R$  000000000017300000000001730000000000166000000000017000000000001660000000000000000000000000000003000000000000000500000000000000085300000000000300002017022000000010000000000000BRBBDCACNPR8657
012017010282BBDCO58     080BBDCE   /EJ PN      N1000R$  000000000009900000000000990000000000095000000000009600000000000950000000000000000000000000000002000000000000000300000000000000028900000000000279702017032000000010000000000000BRBBDCACNPR8657
012017010282BBDCR89     080BBDCE   /EJ PN      N1000R$  000000000000100000000000010000000000001000000000000100000000000010000000000000000000000000000001000000000000001000000000000000001000000000000163902017061900000010000000000000BRBBDCACNPR8645
012017010282BBDCR94     080BBDCE   /EJ PN      N1000R$  000000000000700000000000070000000000007000000000000700000000000070000000000000000000000000000001000000000000001000000000000000007000000000000209402017061900000010000000000000BRBBDCACNPR8645
012017010212BBFI11B     010FII BB PROGRCI  ER  MB   R$  000000024969900000002496990000000241003000000024315500000002420000000000242001000000024880000025000000000000000060000000000014589331000000000000009999123100000010000000000000BRBBFICTF006238
012017010212BBPO11      010FII BB PRGIICI  ER       R$  000000001241300000000124660000000012000000000001234500000000124200000000012400000000001242000158000000000000006080000000000075060803000000000000009999123100000010000000000000BRBBPOCTF003150
012017010212BBRC11      010FII BB CORP CI  ER       R$  000000001185000000000123830000000011800000000001209800000000118610000000011858000000001220000019000000000000000379000000000004585447000000000000009999123100000010000000000000BRBBRCCTF004164
012017010202BBRK3       010BR BROKERS  ON      NM   R$  000000000015700000000001580000000000155000000000015700000000001580000000000156000000000015800021000000000000013300000000000002090500000000000000009999123100000010000000000000BRBBRKACNOR4110
012017010296BBRK3F      020BR BROKERS  ON      NM   R$  000000000016000000000001600000000000160000000000016000000000001600000000000142000000000018200001000000000000000065000000000000010400000000000000009999123100000010000000000000BRBBRKACNOR4110
012017010214BBSD11      010BB ETF SP DVCI           R$  000000000413000000000041300000000004130000000000413000000000041300000000000000000000000000000001000000000000000100000000000000413000000000000000009999123100000010000000000000BRBBSDCTF000100
012017010202BBSE3       010BBSEGURIDADEON      NM   R$  000000000278500000000028610000000002781000000000282100000000027820000000002782000000000279004422000000000001035100000000002920153900000000000000009999123100000010000000000000BRBBSEACNOR5107
012017010296BBSE3F      020BBSEGURIDADEON      NM   R$  000000000283000000000028600000000002785000000000282100000000028400000000002791000000000284000164000000000000003135000000000008844779000000000000009999123100000010000000000000BRBBSEACNOR5107
012017010278BBSEA13     070BBSEE       ON      NM000R$  000000000000100000000000010000000000001000000000000100000000000010000000000001000000000000000001000000000000003000000000000000003000000000000335902017011600000010000000000000BRBBSEACNOR5107
012017010278BBSEA28     070BBSE        ON      NM000R$  000000000004600000000000460000000000046000000000004600000000000460000000000035000000000000000005000000000000027200000000000001251200000000000283402017011600000010000000000000BRBBSEACNOR5107
012017010278BBSEA29     070BBSE        ON      NM000R$  000000000001900000000000190000000000019000000000001900000000000190000000000000000000000002700003000000000000020000000000000000380000000000000293402017011600000010000000000000BRBBSEACNOR5107
012017010278BBSEA58     070BBSE  FM    ON      NM000R$  000000000004200000000000420000000000042000000000004200000000000420000000000010000000000000000001000000000000001100000000000000046200000000000288402017011600000010000000000000BRBBSEACNOR5107
012017010278BBSEA71     070BBSEE       ON      NM000R$  000000000000100000000000010000000000001000000000000100000000000010000000000001000000000000000001000000000000013500000000000000013500000000000315902017011600000010000000000000BRBBSEACNOR5107
012017010278BBSEB1      070BBSE        ON      NM000R$  000000000001500000000000150000000000015000000000001500000000000150000000000000000000000000000001000000000000001100000000000000016500000000000318402017022000000010000000000000BRBBSEACNOR5107
012017010278BBSEB29     070BBSE        ON      NM000R$  000000000006000000000000600000000000060000000000006000000000000600000000000000000000000000000001000000000000001000000000000000060000000000000293402017022000000010000000000000BRBBSEACNOR5107
012017010282BBSEM27     080BBSEE       ON      NM000R$  000000000003100000000000310000000000031000000000003100000000000310000000000021000000000003500002000000000000003600000000000000111600000000000273402017011600000010000000000000BRBBSEACNOR5107
012017010202BBTG11      010BTG PACTUAL UNT          R$  000000000146700000000015200000000001449000000000148700000000015100000000001503000000000151000793000000000000892100000000001327015400000000000000009999123100000010000000000000BRBBTGUNT007115
012017010296BBTG11F     020BTG PACTUAL UNT          R$  000000000147000000000014840000000001470000000000147700000000014810000000001458000000000159700004000000000000000082000000000000121125000000000000009999123100000010000000000000BRBBTGUNT007115
012017010262BBTG11T     030BTG PACTUAL UNT       030R$  000000000147500000000014760000000001475000000000147500000000014760000000000000000000000000000002000000000000000200000000000000295066000000000000009999123100000010000000000000BRBBTGUNT007115
012017010262BBTG11T     030BTG PACTUAL UNT       060R$  000000000149900000000015410000000001487000000000151500000000015410000000000000000000000000000022000000000000634700000000000961677967000000000000009999123100000010000000000000BRBBTGUNT007115
012017010212BBVJ11      010FII C JARDIMCI  ER       R$  000000000535000000000053510000000004902000000000516000000000051800000000005180000000000527500064000000000000003275000000000016900291000000000000009999123100000010000000000000BRBBVJCTF001173
012017010212BCFF11B     010FII BC FFII CI      MB   R$  000000000693000000000069490000000006899000000000692700000000069010000000006902000000000694900027000000000000001638000000000011346657000000000000009999123100000010000000000000BRBCFFCTF000181
012017010212BCIA11      010FII BCIA    CI  ER       R$  000000001290000000000129000000000012900000000001290000000000129000000000010000000000001290000002000000000000000020000000000000258000000000000000009999123100000010000000000000BRBCIACTF005119
012017010212BCRI11      010FII BEES CRICI  ER       R$  000000001160000000000116000000000011549000000001155200000000115490000000011350000000001154500009000000000000000083000000000000958837000000000000009999123100000010000000000000BRBCRICTF009119
012017010202BEEF3       010MINERVA     ON      NM   R$  000000000121500000000012250000000001158000000000118300000000011900000000001180000000000119003470000000000000616600000000000730002500000000000000009999123100000010000000000000BRBEEFACNOR6106
012017010296BEEF3F      020MINERVA     ON      NM   R$  000000000124000000000012400000000001167000000000118200000000011800000000001174000000000124000040000000000000001156000000000001367458000000000000009999123100000010000000000000BRBEEFACNOR6106
012017010262BEEF3T      030MINERVA     ON      NM030R$  000000000119300000000011940000000001193000000000119300000000011940000000000000000000000000000002000000000000000400000000000000477360000000000000009999123100000010000000000000BRBEEFACNOR6106
012017010262BEEF3T      030MINERVA     ON      NM060R$  000000000120500000000012060000000001205000000000120500000000012060000000000000000000000000000002000000000000002000000000000002411720000000000000009999123100000010000000000000BRBEEFACNOR6106
012017010278BEEFD32     070BEEFE       ON      NM000R$  000000000003300000000000340000000000033000000000003300000000000340000000000000000000000000000003000000000000022600000000000000754200000000000127502017041700000010000000000000BRBEEFACNOR6106
012017010202BEES3       010BANESTES    ON  EJ       R$  000000000026800000000002680000000000257000000000026200000000002650000000000263000000000026500008000000000000007300000000000001919200000000000000009999123100000010000000000000BRBEESACNOR9290
012017010202BEES4       010BANESTES    PN  EJ       R$  000000000026500000000002650000000000265000000000026500000000002650000000000256000000000026500001000000000000000400000000000000106000000000000000009999123100000010000000000000BRBEESACNPR6215
012017010202BGIP4       010BANESE      PN           R$  000000000142500000000014500000000001400000000000143400000000014300000000001411000000000145000008000000000000001700000000000002438500000000000000009999123100000010000000000000BRBGIPACNPR8187
012017010296BGIP4F      020BANESE      PN           R$  000000000140000000000014000000000001400000000000140000000000014000000000001400000000000159000001000000000000000059000000000000082600000000000000009999123100000010000000000000BRBGIPACNPR8187
012017010202BMEB4       010MERC BRASIL PN           R$  000000000041900000000004190000000000411000000000041400000000004190000000000411000000000041900014000000000000006700000000000002776400000000000000009999123100000010000000000000BRBMEBACNPR5196
012017010202BMKS3       010BIC MONARK  ON           R$  000000002879900000000287990000000027699000000002832200000000276990000000028001000000002879900007000000000000000030000000000000849683000000000000009999123100000010000000000000BRBMKSACNOR9158
012017010212BMLC11B     010FII BMBRC LCCI      MB   R$  000000000869900000000086990000000008699000000000869900000000086990000000008550000000000869900003000000000000000050000000000000434950000000000000009999123100000010000000000000BRBMLCCTF004158
012017010212BNFS11      010FII BANRISULCI  ER       R$  000000001200000000000124000000000012000000000001201600000000124000000000012400000000001249400003000000000000000049000000000000588800000000000000009999123100000010000000000000BRBNFSCTF000152
012017010202BOBR4       010BOMBRIL     PN           R$  000000000020000000000002050000000000200000000000020000000000002010000000000200000000000020400022000000000000013000000000000002606800000000000000009999123100000010000000000000BRBOBRACNPR3128
012017010296BOBR4F      020BOMBRIL     PN           R$  000000000021100000000002110000000000211000000000021100000000002110000000000200000000000021100001000000000000000095000000000000020045000000000000009999123100000010000000000000BRBOBRACNPR3128
012017010214BOVA11      010ISHARES BOVACI           R$  000000000579900000000058040000000005750000000000577100000000057630000000005763000000000576402851000000000000828980000000004784085990000000000000009999123100000010000000000000BRBOVACTF003102
012017010296BOVA11F     020ISHARES BOVACI           R$  000000000615600000000061560000000005700000000000579400000000057890000000005555000000000580000016000000000000000049000000000000283911000000000000009999123100000010000000000000BRBOVACTF003102
012017010278BOVAA58     070BOVA  FM    CI        000R$  000000000010400000000001100000000000102000000000010200000000001050000000000000000000000000000008000000000000020450000000000002102800000000000580002017011600000010000000000000BRBOVACTF003102
012017010278BOVAA59     070BOVA  FM    CI        000R$  000000000006000000000000600000000000060000000000006000000000000600000000000000000000000000000002000000000000001600000000000000096000000000000590002017011600000010000000000000BRBOVACTF003102
012017010278BOVAA60     070BOVA  FM    CI        000R$  000000000003800000000000380000000000038000000000003800000000000380000000000002000000000010000001000000000000000200000000000000007600000000000600002017011600000010000000000000BRBOVACTF003102
012017010278BOVAA61     070BOVA  FM    CI        000R$  000000000001600000000000160000000000016000000000001600000000000160000000000000000000000000000001000000000000000200000000000000003200000000000610002017011600000010000000000000BRBOVACTF003102
012017010282BOVAM56     080BOVAE       CI        000R$  000000000004100000000000410000000000039000000000003900000000000390000000000000000000000000000005000000000000025800000000000001017800000000000560002017011600000010000000000000BRBOVACTF003102
012017010282BOVAM57     080BOVAE FM    CI        000R$  000000000007700000000000770000000000069000000000007000000000000690000000000000000000000010000006000000000000023100000000000001618700000000000570002017011600000010000000000000BRBOVACTF003102
012017010282BOVAM58     080BOVAE FM    CI        000R$  000000000010400000000001110000000000104000000000010800000000001110000000000000000000000000000004000000000000000350000000000000038100000000000580002017011600000010000000000000BRBOVACTF003102
012017010282BOVAM59     080BOVAE FM    CI        000R$  000000000016400000000001640000000000164000000000016400000000001640000000000000000000000000000001000000000000002500000000000000410000000000000590002017011600000010000000000000BRBOVACTF003102
012017010282BOVAN55     080BOVAE       CI        000R$  000000000008000000000000800000000000080000000000008000000000000800000000000000000000000000000001000000000000003800000000000000304000000000000550002017022000000010000000000000BRBOVACTF003102
012017010282BOVAN57     080BOVAE FM    CI        000R$  000000000013000000000001380000000000130000000000013000000000001380000000000000000000000000000002000000000000002800000000000000366400000000000570002017022000000010000000000000BRBOVACTF003102
012017010282BOVAN58     080BOVAE FM    CI        000R$  000000000016500000000001650000000000165000000000016500000000001650000000000000000000000000000002000000000000005000000000000000825000000000000580002017022000000010000000000000BRBOVACTF003102
012017010282BOVAN59     080BOVAE FM    CI        000R$  000000000021300000000002210000000000213000000000021700000000002210000000000000000000000000000002000000000000005000000000000001085000000000000590002017022000000010000000000000BRBOVACTF003102
012017010214BOVV11      010IT NOW IBOV CI           R$  000000000596600000000059660000000005966000000000596600000000059660000000005000000000000596700002000000000000048500000000000289351000000000000000009999123100000010000000000000BRBOVVCTF009100
012017010202BPAN4       010BANCO PAN   PN      N1   R$  000000000013000000000001300000000000128000000000012800000000001290000000000127000000000013000017000000000000004800000000000000617400000000000000009999123100000010000000000000BRBPANACNPR1104
012017010296BPAN4F      020BANCO PAN   PN      N1   R$  000000000012400000000001300000000000124000000000012600000000001300000000000127000000000013000004000000000000000158000000000000019958000000000000009999123100000010000000000000BRBPANACNPR1104
012017010212BPFF11      010FII ABSOLUTOCI  ER       R$  000000000800400000000080500000000008004000000000804700000000080500000000008040000000000805000053000000000000001138000000000009157778000000000000009999123100000010000000000000BRBPFFCTF002145
012017010202BPHA3       010BR PHARMA   ON      NM   R$  000000000044800000000004860000000000448000000000046700000000004600000000000460000000000046100187000000000000098400000000000045974000000000000000009999123100000010000000000000BRBPHAACNOR6104
012017010296BPHA3F      020BR PHARMA   ON      NM   R$  000000000046000000000004600000000000460000000000046000000000004600000000000457000000000046500001000000000000000001000000000000000460000000000000009999123100000010000000000000BRBPHAACNOR6104
012017010262BPHA3T      030BR PHARMA   ON      NM120R$  000000000048100000000004820000000000481000000000048100000000004820000000000000000000000000000002000000000000001000000000000000481150000000000000009999123100000010000000000000BRBPHAACNOR6104
012017010202BRAP3       010BRADESPAR   ON  EJ  N1   R$  000000000125800000000012580000000001208000000000121700000000012300000000001214000000000123400014000000000000002700000000000003286700000000000000009999123100000010000000000000BRBRAPACNOR5130
012017010296BRAP3F      020BRADESPAR   ON  EJ  N1   R$  000000000125800000000012580000000001258000000000125800000000012580000000001189000000000125800014000000000000000065000000000000081770000000000000009999123100000010000000000000BRBRAPACNOR5130
012017010202BRAP4       010BRADESPAR   PN  EJ  N1   R$  000000000147000000000014700000000001441000000000145000000000014500000000001450000000000145101257000000000000352500000000000511382300000000000000009999123100000010000000000000BRBRAPACNPR2130
012017010296BRAP4F      020BRADESPAR   PN  EJ  N1   R$  000000000146600000000014660000000001444000000000145300000000014590000000001447000000000145900091000000000000001017000000000001478365000000000000009999123100000010000000000000BRBRAPACNPR2130
012017010262BRAP4T      030BRADESPAR   PN  EJ  N1030R$  000000000146500000000014660000000001465000000000146500000000014660000000000000000000000000000002000000000000020000000000000029304500000000000000009999123100000010000000000000BRBRAPACNPR2130
012017010262BRAP4T      030BRADESPAR   PN  EJ  N1060R$  000000000148200000000014830000000001477000000000147900000000014780000000000000000000000000000004000000000000010000000000000014797774000000000000009999123100000010000000000000BRBRAPACNPR2130
012017010214BRAX11      010ISHARES BRAXCI           R$  000000000485300000000048660000000004833000000000485400000000048500000000000040000000000000000007000000000000000280000000000001359390000000000000009999123100000010000000000000BRBRAXCTF002100
012017010212BRCR11      010FII BC FUND CI           R$  000000000955000000000096830000000009532000000000962100000000096750000000009632000000000967500249000000000000009707000000000093398307000000000000009999123100000010000000000000BRBRCRCTF000172
012017010202BRFS3       010BRF SA      ON      NM   R$  000000000480300000000048150000000004764000000000478800000000047900000000004790000000000479702574000000000000600200000000002874344400000000000000009999123100000010000000000000BRBRFSACNOR8117
012017010296BRFS3F      020BRF SA      ON      NM   R$  000000000483800000000048480000000004768000000000480000000000048400000000004774000000000484000147000000000000002310000000000011088854000000000000009999123100000010000000000000BRBRFSACNOR8117
012017010262BRFS3T      030BRF SA      ON      NM030R$  000000000482900000000048300000000004829000000000482900000000048300000000000000000000000000000002000000000000000200000000000000965920000000000000009999123100000010000000000000BRBRFSACNOR8117
012017010262BRFS3T      030BRF SA      ON      NM120R$  000000000496400000000049650000000004964000000000496400000000049650000000000000000000000000000002000000000000000200000000000000992868000000000000009999123100000010000000000000BRBRFSACNOR8117
012017010278BRFSA16     070BRFS        ON      NM000R$  000000000017600000000001760000000000176000000000017600000000001760000000000000000000000000000001000000000000000100000000000000017600000000000469702017011600000010000000000000BRBRFSACNOR8117
012017010278BRFSA48     070BRFS        ON      NM000R$  000000000009200000000000920000000000092000000000009200000000000920000000000000000000000000000001000000000000000300000000000000027600000000000484702017011600000010000000000000BRBRFSACNOR8117
012017010278BRFSA49     070BRFS        ON      NM000R$  000000000005800000000000580000000000052000000000005600000000000520000000000000000000000012600006000000000000011900000000000000672200000000000494702017011600000010000000000000BRBRFSACNOR8117
012017010278BRFSB1      070BRFS        ON      NM000R$  000000000010600000000001060000000000106000000000010600000000001060000000000000000000000000000001000000000000000100000000000000010600000000000517202017022000000010000000000000BRBRFSACNOR8117
012017010278BRFSB18     070BRFS  FM    ON      NM000R$  000000000019600000000001960000000000196000000000019600000000001960000000000000000000000000000001000000000000000100000000000000019600000000000489702017022000000010000000000000BRBRFSACNOR8117
012017010278BRFSB51     070BRFS  FM    ON      NM000R$  000000000013000000000001300000000000130000000000013000000000001300000000000000000000000000000001000000000000001000000000000000130000000000000507202017022000000010000000000000BRBRFSACNOR8116
012017010282BRFSM16     080BRFSE FM    ON      NM000R$  000000000006900000000000690000000000065000000000006500000000000650000000000000000000000000000003000000000000002100000000000000136900000000000469702017011600000010000000000000BRBRFSACNOR8117
012017010282BRFSM46     080BRFSE       ON      NM000R$  000000000005800000000000580000000000058000000000005800000000000580000000000000000000000000000001000000000000002000000000000000116000000000000464702017011600000010000000000000BRBRFSACNOR8117
012017010282BRFSM47     080BRFSE       ON      NM000R$  000000000008500000000000850000000000078000000000008400000000000780000000000000000000000000000002000000000000001100000000000000092800000000000474702017011600000010000000000000BRBRFSACNOR8117
012017010282BRFSM48     080BRFSE       ON      NM000R$  000000000013500000000001350000000000135000000000013500000000001350000000000075000000000000000001000000000000002000000000000000270000000000000484702017011600000010000000000000BRBRFSACNOR8117
012017010282BRFSM49     080BRFSE       ON      NM000R$  000000000020500000000002050000000000181000000000019800000000001810000000000159000000000046600002000000000000002100000000000000416100000000000494702017011600000010000000000000BRBRFSACNOR8117
012017010282BRFSN45     080BRFSE       ON      NM000R$  000000000009900000000000990000000000099000000000009900000000000990000000000000000000000000000001000000000000001300000000000000128700000000000454702017022000000010000000000000BRBRFSACNOR8117
012017010282BRFSN95     080BRFSE       ON      NM000R$  000000000008700000000000880000000000087000000000008700000000000880000000000000000000000000000006000000000000013500000000000001176000000000000447202017022000000010000000000000BRBRFSACNOR8116
012017010202BRIN3       010BR INSURANCEON      NM   R$  000000000201100000000020160000000001995000000000201100000000020140000000002008000000000201500013000000000000001900000000000003821300000000000000009999123100000010000000000000BRBRINACNOR3111
012017010296BRIN3F      020BR INSURANCEON      NM   R$  000000000201900000000020190000000002019000000000201900000000020190000000001996000000000201900001000000000000000053000000000000107007000000000000009999123100000010000000000000BRBRINACNOR3111
012017010202BRIV4       010ALFA INVEST PN           R$  000000000056000000000005600000000000545000000000055100000000005510000000000551000000000056000007000000000000004000000000000002206600000000000000009999123100000010000000000000BRBRIVACNPR3203
012017010202BRKM3       010BRASKEM     ON      N1   R$  000000000300000000000030000000000002921000000000298700000000029230000000002923000000000298000008000000000000001700000000000005079500000000000000009999123100000010000000000000BRBRKMACNOR1114
012017010296BRKM3F      020BRASKEM     ON      N1   R$  000000000324100000000032410000000003000000000000308400000000030000000000002988000000000300000007000000000000000101000000000000311534000000000000009999123100000010000000000000BRBRKMACNOR1114
012017010202BRKM5       010BRASKEM     PNA     N1   R$  000000000340400000000034100000000003333000000000337600000000034000000000003400000000000340602266000000000000486500000000001642481400000000000000009999123100000010000000000000BRBRKMACNPA4114
012017010296BRKM5F      020BRASKEM     PNA     N1   R$  000000000342000000000034470000000003310000000000338200000000034470000000003387000000000344700086000000000000001088000000000003680216000000000000009999123100000010000000000000BRBRKMACNPA4114
012017010202BRKM6       010BRASKEM     PNB     N1   R$  000000000500000000000050000000000005000000000000500000000000050000000000001001000000000500000001000000000000000100000000000000500000000000000000009999123100000010000000000000BRBRKMACNPB2111
012017010202BRML3       010BR MALLS PARON      NM   R$  000000000118400000000012080000000001172000000000119300000000012080000000001196000000000120806062000000000001876000000000002239076600000000000000009999123100000010000000000000BRBRMLACNOR9109
012017010296BRML3F      020BR MALLS PARON      NM   R$  000000000118900000000012490000000001168000000000119300000000012490000000001165000000000124900092000000000000001389000000000001657661000000000000009999123100000010000000000000BRBRMLACNOR9109
012017010262BRML3T      030BR MALLS PARON      NM030R$  000000000118600000000011870000000001186000000000118600000000011870000000000000000000000000000002000000000000006000000000000007117962000000000000009999123100000010000000000000BRBRMLACNOR9109
012017010278BRMLA12     070BRML  FM    ON      NM000R$  000000000001300000000000140000000000012000000000001200000000000130000000000012000000000002000006000000000000038300000000000000489000000000000123302017011600000010000000000000BRBRMLACNOR9109
012017010278BRMLA13     070BRML  FM    ON      NM000R$  000000000000200000000000030000000000002000000000000200000000000030000000000000000000000000000017000000000000054100000000000000151200000000000133302017011600000010000000000000BRBRMLACNOR9109
012017010278BRMLA41     070BRML  FM    ON      NM000R$  000000000003800000000000400000000000038000000000003800000000000400000000000002000000000000000015000000000000050000000000000001925600000000000118302017011600000010000000000000BRBRMLACNOR9109
012017010278BRMLA72     070BRMLE       ON      NM000R$  000000000002100000000000210000000000021000000000002100000000000210000000000021000000000000000001000000000000005000000000000000105000000000000120802017011600000010000000000000BRBRMLACNOR9109
012017010278BRMLB41     070BRML  FM    ON      NM000R$  000000000008200000000000820000000000082000000000008200000000000820000000000000000000000000000001000000000000001900000000000000155800000000000115002017022000000010000000000000BRBRMLACNOR9109
012017010278BRMLC6      070BRML        ON      NM000R$  000000000005400000000000690000000000054000000000006200000000000650000000000055000000000006500027000000000000043900000000000002765200000000000123102017032000000010000000000000BRBRMLACNOR9108
012017010282BRMLN12     080BRMLE FM    ON      NM000R$  000000000004400000000000440000000000043000000000004300000000000440000000000000000000000000000006000000000000002000000000000000087200000000000120002017022000000010000000000000BRBRMLACNOR9109
012017010202BRPR3       010BR PROPERT  ON      NM   R$  000000000075100000000007650000000000747000000000075300000000007470000000000747000000000076000367000000000000138100000000000104043400000000000000009999123100000010000000000000BRBRPRACNOR9116
012017010296BRPR3F      020BR PROPERT  ON      NM   R$  000000000075100000000007510000000000751000000000075100000000007510000000000733000000000090000001000000000000000038000000000000028538000000000000009999123100000010000000000000BRBRPRACNOR9116
012017010202BRSR6       010BANRISUL    PNB     N1   R$  000000000103100000000010720000000001021000000000106200000000010670000000001067000000000106801048000000000000281400000000000299061200000000000000009999123100000010000000000000BRBRSRACNPB4149
012017010296BRSR6F      020BANRISUL    PNB     N1   R$  000000000099500000000010680000000000980000000000104100000000010630000000001040000000000107100023000000000000000634000000000000660583000000000000009999123100000010000000000000BRBRSRACNPB4149
012017010202BSEV3       010BIOSEV      ON      NM   R$  000000000075000000000007550000000000739000000000074500000000007470000000000745000000000075500039000000000000007400000000000005514600000000000000009999123100000010000000000000BRBSEVACNOR3101
012017010296BSEV3F      020BIOSEV      ON      NM   R$  000000000081000000000008100000000000745000000000077000000000007450000000000710000000000079900006000000000000000078000000000000060060000000000000009999123100000010000000000000BRBSEVACNOR3101
012017010202BTOW3       010B2W DIGITAL ON      NM   R$  000000000102000000000010320000000001006000000000101900000000010200000000001019000000000102000646000000000000196100000000000199896700000000000000009999123100000010000000000000BRBTOWACNOR8108
012017010296BTOW3F      020B2W DIGITAL ON      NM   R$  000000000101000000000010230000000001010000000000101400000000010150000000001000000000000102400027000000000000000237000000000000240343000000000000009999123100000010000000000000BRBTOWACNOR8108
012017010262BTOW3T      030B2W DIGITAL ON      NM016R$  000000000102900000000010300000000001029000000000102900000000010300000000000000000000000000000002000000000000000500000000000000514518000000000000009999123100000010000000000000BRBTOWACNOR8108
012017010262BTOW3T      030B2W DIGITAL ON      NM030R$  000000000104200000000010430000000001042000000000104200000000010430000000000000000000000000000002000000000000005000000000000005211047000000000000009999123100000010000000000000BRBTOWACNOR8108
012017010202BTTL3       010BATTISTELLA ON           R$  000000000099600000000009960000000000990000000000099400000000009900000000000801000000000098900007000000000000002500000000000002487000000000000000009999123100000010000000000000BRBTTLACNOR0107
012017010202BVMF3       010BMFBOVESPA  ON  EJ  NM   R$  000000000162600000000016350000000001615000000000162400000000016280000000001627000000000162807662000000000002806500000000004558821600000000000000009999123100000010000000000000BRBVMFACNOR3140
012017010296BVMF3F      020BMFBOVESPA  ON  EJ  NM   R$  000000000164900000000016490000000001581000000000162600000000016490000000001625000000000164900156000000000000002657000000000004321274000000000000009999123100000010000000000000BRBVMFACNOR3140
012017010278BVMFA16     070BVMF  FM/EJ ON      NM000R$  000000000004900000000000540000000000045000000000004900000000000480000000000045000000000004800033000000000000034200000000000001692000000000000160702017011600000010000000000000BRBVMFACNOR3138
012017010278BVMFA17     070BVMF  FM/EJ ON      NM000R$  000000000001200000000000140000000000010000000000001200000000000130000000000012000000000001300059000000000000070600000000000000883600000000000170702017011600000010000000000000BRBVMFACNOR3138
012017010278BVMFA18     070BVMF    /EJ ON      NM000R$  000000000000300000000000050000000000002000000000000200000000000050000000000002000000000000600009000000000000007300000000000000019000000000000180702017011600000010000000000000BRBVMFACNOR3138
012017010278BVMFA46     070BVMF  FM/EJ ON      NM000R$  000000000002300000000000280000000000022000000000002500000000000220000000000009000000000002900011000000000000024800000000000000632500000000000165702017011600000010000000000000BRBVMFACNOR3138
012017010278BVMFA47     070BVMF  FM/EJ ON      NM000R$  000000000000700000000000070000000000007000000000000700000000000070000000000000000000000001400001000000000000004000000000000000028000000000000175702017011600000010000000000000BRBVMFACNOR3138
012017010278BVMFA48     070BVMF    /EJ ON      NM000R$  000000000000300000000000040000000000003000000000000300000000000040000000000000000000000000500002000000000000010100000000000000039900000000000185702017011600000010000000000000BRBVMFACNOR3138
012017010278BVMFA76     070BVMFE   /EJ ON      NM000R$  000000000006800000000000680000000000068000000000006800000000000680000000000000000000000000000001000000000000001000000000000000068000000000000158202017011600000010000000000000BRBVMFACNOR3137
012017010278BVMFA77     070BVMFE   /EJ ON      NM000R$  000000000002700000000000270000000000019000000000002500000000000190000000000000000000000000000002000000000000001300000000000000032700000000000168202017011600000010000000000000BRBVMFACNOR3138
012017010278BVMFA86     070BVMFE   /EJ ON      NM000R$  000000000003200000000000320000000000032000000000003200000000000320000000000000000000000000000002000000000000006100000000000000195200000000000163202017011600000010000000000000BRBVMFACNOR3138
012017010278BVMFB17     070BVMF  FM/EJ ON      NM000R$  000000000006600000000000690000000000066000000000006700000000000690000000000050000000000007900027000000000000034000000000000002305000000000000167502017022000000010000000000000BRBVMFACNOR3138
012017010278BVMFB18     070BVMF  FM/EJ ON      NM000R$  000000000003100000000000350000000000031000000000003300000000000310000000000007000000000003500011000000000000019600000000000000648600000000000177502017022000000010000000000000BRBVMFACNOR3138
012017010278BVMFB19     070BVMF    /EJ ON      NM000R$  000000000001500000000000150000000000014000000000001400000000000140000000000005000000000001700002000000000000014900000000000000220700000000000187502017022000000010000000000000BRBVMFACNOR3138
012017010278BVMFB46     070BVMF  FM/EJ ON      NM000R$  000000000009100000000000910000000000091000000000009100000000000910000000000000000000000000000003000000000000012000000000000001092000000000000162502017022000000010000000000000BRBVMFACNOR3138
012017010278BVMFB47     070BVMF  FM/EJ ON      NM000R$  000000000004800000000000500000000000046000000000004800000000000460000000000000000000000004900023000000000000114000000000000005496000000000000172502017022000000010000000000000BRBVMFACNOR3138
012017010278BVMFB48     070BVMF    /EJ ON      NM000R$  000000000002200000000000230000000000021000000000002100000000000210000000000010000000000002500003000000000000003300000000000000070300000000000182502017022000000010000000000000BRBVMFACNOR3138
012017010282BVMFM15     080BVMFE   /EJ ON      NM000R$  000000000000900000000000090000000000005000000000000700000000000050000000000005000000000001100009000000000000008900000000000000062900000000000150702017011600000010000000000000BRBVMFACNOR3138
012017010282BVMFM16     080BVMFE   /EJ ON      NM000R$  000000000003300000000000330000000000022000000000002700000000000300000000000000000000000002700011000000000000028200000000000000779000000000000160702017011600000010000000000000BRBVMFACNOR3138
012017010282BVMFM65     080BVMFE   /EJ ON      NM000R$  000000000000500000000000050000000000005000000000000500000000000050000000000000000000000001700001000000000000000600000000000000003000000000000148202017011600000010000000000000BRBVMFACNOR3138
012017010282BVMFM75     080BVMFE   /EJ ON      NM000R$  000000000001000000000000100000000000008000000000000800000000000080000000000000000000000002000009000000000000058800000000000000484400000000000153202017011600000010000000000000BRBVMFACNOR3138
012017010282BVMFM76     080BVMFE FM/EJ ON      NM000R$  000000000001600000000000210000000000016000000000001800000000000210000000000017000000000003200021000000000000138500000000000002590600000000000158202017011600000010000000000000BRBVMFACNOR3137
012017010282BVMFM77     080BVMFE FM/EJ ON      NM000R$  000000000007100000000000750000000000068000000000007100000000000750000000000000000000000000000006000000000000025100000000000001782800000000000168202017011600000010000000000000BRBVMFACNOR3138
012017010282BVMFN15     080BVMFE   /EJ ON      NM000R$  000000000002500000000000260000000000023000000000002500000000000230000000000010000000000000000003000000000000021000000000000000533000000000000147502017022000000010000000000000BRBVMFACNOR3138
012017010282BVMFN66     080BVMFE FM/EJ ON      NM000R$  000000000007700000000000840000000000077000000000008100000000000840000000000000000000000000000003000000000000010000000000000000810000000000000165002017022000000010000000000000BRBVMFACNOR3140
012017010282BVMFN67     080BVMFE FM/EJ ON      NM000R$  000000000010700000000001120000000000107000000000010800000000001120000000000000000000000000000003000000000000012000000000000001304000000000000170002017022000000010000000000000BRBVMFACNOR3140
012017010296CAMB4F      020CAMBUCI     PN           R$  000000000044000000000004400000000000430000000000043800000000004400000000000370000000000047000004000000000000000065000000000000028500000000000000009999123100000010000000000000BRCAMBACNPR1118
012017010202CARD3       010CSU CARDSYSTON  EJ  NM   R$  000000000049400000000004970000000000487000000000049300000000004910000000000491000000000049700816000000000000145300000000000071697400000000000000009999123100000010000000000000BRCARDACNOR9109
012017010296CARD3F      020CSU CARDSYSTON  EJ  NM   R$  000000000049000000000005040000000000490000000000049700000000004940000000000494000000000050400023000000000000000509000000000000253312000000000000009999123100000010000000000000BRCARDACNOR9109
012017010202CCPR3       010CYRE COM-CCPON      NM   R$  000000000099900000000009990000000000930000000000096900000000009900000000000930000000000102000005000000000000000500000000000000484900000000000000009999123100000010000000000000BRCCPRACNOR9111
012017010296CCPR3F      020CYRE COM-CCPON      NM   R$  000000000099000000000009900000000000990000000000099000000000009900000000000911000000000099000001000000000000000014000000000000013860000000000000009999123100000010000000000000BRCCPRACNOR9111
012017010202CCRO3       010CCR SA      ON      NM   R$  000000000159600000000015970000000001548000000000157100000000015790000000001573000000000157906552000000000001892700000000002974354400000000000000009999123100000010000000000000BRCCROACNOR2130
012017010296CCRO3F      020CCR SA      ON      NM   R$  000000000160000000000016000000000001530000000000157600000000016000000000001570000000000160000118000000000000002268000000000003576445000000000000009999123100000010000000000000BRCCROACNOR2130
012017010278CCROA16     070CCRO  FM    ON      NM000R$  000000000004100000000000490000000000041000000000004200000000000490000000000039000000000000000008000000000000024900000000000001060100000000000155802017011600000010000000000000BRCCROACNOR2129
012017010278CCROA17     070CCRO  FM    ON      NM000R$  000000000001000000000000100000000000010000000000001000000000000100000000000000000000000000000001000000000000004900000000000000049000000000000165802017011600000010000000000000BRCCROACNOR2129
012017010278CCROA46     070CCRO  FM    ON      NM000R$  000000000001800000000000230000000000018000000000002000000000000230000000000000000000000000000010000000000000064900000000000001352700000000000160802017011600000010000000000000BRCCROACNOR2129
012017010278CCROA47     070CCRO  FM    ON      NM000R$  000000000000400000000000040000000000004000000000000400000000000040000000000000000000000002000001000000000000004900000000000000019600000000000170802017011600000010000000000000BRCCROACNOR2129
012017010282CCROM16     080CCROE FM    ON      NM000R$  000000000002500000000000250000000000025000000000002500000000000250000000000000000000000000000001000000000000004900000000000000122500000000000155802017011600000010000000000000BRCCROACNOR2129
012017010282CCROM45     080CCROE FM    ON      NM000R$  000000000001200000000000120000000000012000000000001200000000000120000000000000000000000000000002000000000000009800000000000000117600000000000150802017011600000010000000000000BRCCROACNOR2129
012017010282CCROM46     080CCROE FM    ON      NM000R$  000000000004900000000000490000000000049000000000004900000000000490000000000000000000000000000001000000000000004900000000000000240100000000000160802017011600000010000000000000BRCCROACNOR2129
012017010282CCRON76     080CCROE FM    ON      NM000R$  000000000008700000000000870000000000087000000000008700000000000870000000000000000000000000000002000000000000009800000000000000852600000000000163302017022000000010000000000000BRCCROACNOR2130
012017010202CCXC3       010CCX CARVAO  ON      NM   R$  000000000014600000000001500000000000146000000000014800000000001470000000000147000000000015000079000000000000064800000000000009622400000000000000009999123100000010000000000000BRCCXCACNOR5102
012017010296CCXC3F      020CCX CARVAO  ON      NM   R$  000000000014500000000001470000000000145000000000014600000000001470000000000146000000000016400002000000000000000126000000000000018402000000000000009999123100000010000000000000BRCCXCACNOR5102
012017010202CEDO4       010CEDRO       PN      N1   R$  000000000028500000000002850000000000285000000000028500000000002850000000000273000000000036000001000000000000002000000000000000570000000000000000009999123100000010000000000000BRCEDOACNPR5128
012017010202CELP3       010CELPA       ON           R$  000000000022900000000002290000000000229000000000022900000000002290000000000208000000000022800002000000000000000200000000000000045800000000000000009999123100000010000000000000BRCELPACNOR8114
012017010202CELP5       010CELPA       PNA          R$  000000000024000000000002400000000000240000000000024000000000002400000000000210000000000024000002000000000000000900000000000000216000000000000000009999123100000010000000000000BRCELPACNPA1116
012017010202CELP7       010CELPA       PNC          R$  000000000022900000000002350000000000229000000000023200000000002350000000000050000000000023500004000000000000002900000000000000672900000000000000009999123100000010000000000000BRCELPACNPC7116
012017010212CEOC11B     010FII CEO CCP CI      MB   R$  000000000675400000000067670000000006754000000000676000000000067670000000006770000000000679700002000000000000000014000000000000094647000000000000009999123100000010000000000000BRCEOCCTF003133
012017010202CESP6       010CESP        PNB     N1   R$  000000000134000000000013460000000001320000000000132900000000013350000000001333000000000133501677000000000000432900000000000575344400000000000000009999123100000010000000000000BRCESPACNPB4124
012017010296CESP6F      020CESP        PNB     N1   R$  000000000134800000000013480000000001321000000000132800000000013300000000001330000000000134700039000000000000000753000000000001000452000000000000009999123100000010000000000000BRCESPACNPB4124
012017010262CESP6T      030CESP        PNB     N1060R$  000000000135900000000013600000000001359000000000135900000000013600000000000000000000000000000002000000000000000500000000000000679830000000000000009999123100000010000000000000BRCESPACNPB4124
012017010202CGAS3       010COMGAS      ON  EJ       R$  000000000419000000000042000000000004060000000000415300000000041300000000004125000000000416000016000000000000003600000000000014952800000000000000009999123100000010000000000000BRCGASACNOR0140
012017010296CGAS3F      020COMGAS      ON  EJ       R$  000000000439900000000043990000000004130000000000418000000000041300000000004130000000000439900009000000000000000201000000000000840311000000000000009999123100000010000000000000BRCGASACNOR0140
012017010202CGAS5       010COMGAS      PNA EJ       R$  000000000461700000000046700000000004535000000000464500000000046700000000004607000000000467000066000000000000020600000000000095694900000000000000009999123100000010000000000000BRCGASACNPA3137
012017010296CGAS5F      020COMGAS      PNA EJ       R$  000000000489900000000048990000000004595000000000465800000000045950000000004590000000000469900016000000000000000299000000000001392789000000000000009999123100000010000000000000BRCGASACNPA3137
012017010202CGRA3       010GRAZZIOTIN  ON  EJ       R$  000000000175000000000017940000000001700000000000176800000000017000000000001495000000000170000006000000000000000900000000000001591700000000000000009999123100000010000000000000BRCGRAACNOR2067
012017010202CGRA4       010GRAZZIOTIN  PN  EJ       R$  000000000166000000000016600000000001634000000000164800000000016590000000001635000000000166000017000000000000004400000000000007251400000000000000009999123100000010000000000000BRCGRAACNPR9067
012017010296CGRA4F      020GRAZZIOTIN  PN  EJ       R$  000000000165900000000016590000000001659000000000165900000000016590000000001603000000000200000001000000000000000005000000000000008295000000000000009999123100000010000000000000BRCGRAACNPR9067
012017010202CIEL3       010CIELO       ON      NM   R$  000000000278500000000027940000000002717000000000275900000000027250000000002724000000000272504199000000000001859300000000005130806100000000000000009999123100000010000000000000BRCIELACNOR3121
012017010296CIEL3F      020CIELO       ON      NM   R$  000000000283800000000028380000000002722000000000276900000000027220000000002722000000000278000181000000000000002631000000000007285873000000000000009999123100000010000000000000BRCIELACNOR3121
012017010262CIEL3T      030CIELO       ON      NM016R$  000000000277600000000027770000000002776000000000277600000000027770000000000000000000000000000006000000000000020000000000000055520160000000000000009999123100000010000000000000BRCIELACNOR3121
012017010262CIEL3T      030CIELO       ON      NM030R$  000000000281400000000028150000000002814000000000281400000000028150000000000000000000000000000002000000000000000200000000000000562939000000000000009999123100000010000000000000BRCIELACNOR3121
012017010278CIELA1      070CIEL        ON      NM000R$  000000000000200000000000020000000000002000000000000200000000000020000000000000000000000000000002000000000000014400000000000000028800000000000316302017011600000010000000000000BRCIELACNOR3121
012017010278CIELA12     070CIELE       ON      NM000R$  000000000000400000000000040000000000004000000000000400000000000040000000000000000000000000000001000000000000005700000000000000022800000000000328802017011600000010000000000000BRCIELACNOR3121
012017010278CIELA28     070CIEL        ON      NM000R$  000000000006800000000000680000000000045000000000005600000000000450000000000023000000000010500002000000000000002000000000000000113000000000000280102017011600000010000000000000BRCIELACNOR3121
012017010278CIELA29     070CIEL        ON      NM000R$  000000000002300000000000250000000000023000000000002400000000000250000000000001000000000005900003000000000000004300000000000000106100000000000291302017011600000010000000000000BRCIELACNOR3121
012017010278CIELA3      070CIELE       ON      NM000R$  000000000000500000000000050000000000005000000000000500000000000050000000000000000000000000000001000000000000000200000000000000001000000000000318802017011600000010000000000000BRCIELACNOR3121
012017010278CIELA31     070CIEL        ON      NM000R$  000000000000200000000000020000000000002000000000000200000000000020000000000000000000000003500001000000000000000300000000000000000600000000000311302017011600000010000000000000BRCIELACNOR3121
012017010278CIELA32     070CIEL        ON      NM000R$  000000000000100000000000010000000000001000000000000100000000000010000000000000000000000000000001000000000000001100000000000000001100000000000321302017011600000010000000000000BRCIELACNOR3121
012017010278CIELA33     070CIEL        ON      NM000R$  000000000000100000000000010000000000001000000000000100000000000010000000000000000000000000000001000000000000006000000000000000006000000000000331302017011600000010000000000000BRCIELACNOR3121
012017010278CIELA57     070CIEL  FM    ON      NM000R$  000000000009300000000000930000000000085000000000008600000000000850000000000058000000000020000004000000000000003500000000000000303900000000000275102017011600000010000000000000BRCIELACNOR3121
012017010278CIELA58     070CIEL  FM    ON      NM000R$  000000000004600000000000460000000000046000000000004600000000000460000000000001000000000015000001000000000000001000000000000000046000000000000285102017011600000010000000000000BRCIELACNOR3121
012017010278CIELA60     070CIEL        ON      NM000R$  000000000000900000000000090000000000009000000000000900000000000090000000000001000000000002500002000000000000003300000000000000029700000000000301302017011600000010000000000000BRCIELACNOR3121
012017010278CIELA7      070CIELE       ON      NM000R$  000000000000100000000000010000000000001000000000000100000000000010000000000001000000000002500001000000000000010500000000000000010500000000000308802017011600000010000000000000BRCIELACNOR3121
012017010278CIELA70     070CIEL  FM    ON      NM000R$  000000000000700000000000070000000000007000000000000700000000000070000000000001000000000003000002000000000000020000000000000000140000000000000306302017011600000010000000000000BRCIELACNOR3121
012017010278CIELB30     070CIEL        ON      NM000R$  000000000005700000000000570000000000057000000000005700000000000570000000000010000000000000000002000000000000014000000000000000798000000000000300502017022000000010000000000000BRCIELACNOR3121
012017010278CIELB31     070CIEL        ON      NM000R$  000000000003200000000000320000000000032000000000003200000000000320000000000006000000000000000001000000000000003000000000000000096000000000000313402017022000000010000000000000BRCIELACNOR3121
012017010278CIELB57     070CIEL  FM    ON      NM000R$  000000000015400000000001540000000000154000000000015400000000001540000000000000000000000000000001000000000000000200000000000000030800000000000276702017022000000010000000000000BRCIELACNOR3121
012017010278CIELB60     070CIEL  FM    ON      NM000R$  000000000004200000000000420000000000035000000000003900000000000350000000000032000000000004200014000000000000021100000000000000835600000000000308402017022000000010000000000000BRCIELACNOR3121
012017010278CIELB87     070CIEL        ON      NM000R$  000000000004500000000000450000000000045000000000004500000000000450000000000000000000000000000001000000000000000100000000000000004500000000000303402017022000000010000000000000BRCIELACNOR3118
012017010278CIELB91     070CIELE       ON      NM000R$  000000000003400000000000340000000000034000000000003400000000000340000000000000000000000000000001000000000000002500000000000000085000000000000310902017022000000010000000000000BRCIELACNOR3121
012017010282CIELM1      080CIELE       ON      NM000R$  000000000038000000000003820000000000380000000000038100000000003820000000000000000000000000000002000000000000002000000000000000763600000000000316302017011600000010000000000000BRCIELACNOR3121
012017010282CIELM26     080CIELE       ON      NM000R$  000000000002600000000000260000000000026000000000002600000000000260000000000001000000000000000001000000000000002000000000000000052000000000000260102017011600000010000000000000BRCIELACNOR3121
012017010282CIELM27     080CIELE       ON      NM000R$  000000000005500000000000550000000000055000000000005500000000000550000000000001000000000000000002000000000000008000000000000000440000000000000270102017011600000010000000000000BRCIELACNOR3121
012017010282CIELM56     080CIELE FM    ON      NM000R$  000000000002500000000000330000000000025000000000003000000000000330000000000019000000000020000002000000000000003000000000000000091000000000000265102017011600000010000000000000BRCIELACNOR3121
012017010282CIELM57     080CIELE FM    ON      NM000R$  000000000005600000000000560000000000050000000000005100000000000500000000000001000000000000000003000000000000004300000000000000222800000000000275102017011600000010000000000000BRCIELACNOR3121
012017010282CIELM65     080CIELE FM    ON      NM000R$  000000000013500000000001350000000000135000000000013500000000001350000000000050000000000000000001000000000000001900000000000000256500000000000288802017011600000010000000000000BRCIELACNOR3118
012017010282CIELN55     080CIELE       ON      NM000R$  000000000005000000000000500000000000050000000000005000000000000500000000000000000000000000000001000000000000005000000000000000250000000000000256702017022000000010000000000000BRCIELACNOR3121
012017010282CIELN82     080CIELE       ON      NM000R$  000000000006200000000000720000000000062000000000006400000000000720000000000000000000000000000004000000000000016000000000000001032000000000000261702017022000000010000000000000BRCIELACNOR3118
012017010202CLSC4       010CELESC      PN      N2   R$  000000000156300000000015740000000001557000000000156200000000015740000000001547000000000157500019000000000000004100000000000006407100000000000000009999123100000010000000000000BRCLSCACNPR3111
012017010296CLSC4F      020CELESC      PN      N2   R$  000000000156000000000015600000000001560000000000156000000000015600000000001557000000000160000001000000000000000080000000000000124800000000000000009999123100000010000000000000BRCLSCACNPR3111
012017010202CMIG3       010CEMIG       ON  EJ  N1   R$  000000000078200000000008090000000000779000000000078900000000008090000000000808000000000080900105000000000000043600000000000034440200000000000000009999123100000010000000000000BRCMIGACNOR6218
012017010296CMIG3F      020CEMIG       ON  EJ  N1   R$  000000000078800000000008050000000000762000000000079100000000008050000000000808000000000084900036000000000000001096000000000000867917000000000000009999123100000010000000000000BRCMIGACNOR6218
012017010202CMIG4       010CEMIG       PN  EJ  N1   R$  000000000076900000000007800000000000757000000000077000000000007720000000000772000000000077602806000000000001766300000000001361781600000000000000009999123100000010000000000000BRCMIGACNPR3218
012017010296CMIG4F      020CEMIG       PN  EJ  N1   R$  000000000077000000000007820000000000758000000000077000000000007760000000000776000000000077800103000000000000001675000000000001291198000000000000009999123100000010000000000000BRCMIGACNPR3218
012017010262CMIG4T      030CEMIG       PN  EJ  N1030R$  000000000077500000000007830000000000775000000000077700000000007830000000000000000000000000000004000000000000009700000000000007544842000000000000009999123100000010000000000000BRCMIGACNPR3218
012017010262CMIG4T      030CEMIG       PN  EJ  N1060R$  000000000077700000000007880000000000777000000000078500000000007880000000000000000000000000000004000000000000012000000000000009429652000000000000009999123100000010000000000000BRCMIGACNPR3218
012017010262CMIG4T      030CEMIG       PN  EJ  N1182R$  000000000081400000000008150000000000814000000000081400000000008150000000000000000000000000000002000000000000005000000000000004074687000000000000009999123100000010000000000000BRCMIGACNPR3218
012017010278CMIGA7      070CMIG    /EJ PN      N1000R$  000000000008000000000001100000000000080000000000009300000000001000000000000083000000000000000004000000000000003100000000000000290000000000000067402017011600000010000000000000BRCMIGACNPR3217
012017010278CMIGA8      070CMIG  FM/EJ PN      N1000R$  000000000002200000000000290000000000018000000000002200000000000240000000000022000000000002500010000000000000022900000000000000524300000000000077402017011600000010000000000000BRCMIGACNPR3217
012017010278CMIGA82     070CMIG  FM/EJ PN      N1000R$  000000000001500000000000150000000000013000000000001400000000000130000000000003000000000000000005000000000000016700000000000000247100000000000079402017011600000010000000000000BRCMIGACNPR3217
012017010278CMIGA84     070CMIG  FM/EJ PN      N1000R$  000000000001100000000000110000000000011000000000001100000000000110000000000006000000000000000003000000000000015000000000000000165000000000000081402017011600000010000000000000BRCMIGACNPR3217
012017010278CMIGA86     070CMIG    /EJ PN      N1000R$  000000000000800000000000080000000000008000000000000800000000000080000000000001000000000002300001000000000000000100000000000000000800000000000083402017011600000010000000000000BRCMIGACNPR3217
012017010278CMIGB8      070CMIG  FM/EJ PN      N1000R$  000000000004300000000000430000000000043000000000004300000000000430000000000000000000000000000001000000000000000500000000000000021500000000000077402017022000000010000000000000BRCMIGACNPR3217
012017010278CMIGB86     070CMIG    /EJ PN      N1000R$  000000000002300000000000230000000000023000000000002300000000000230000000000000000000000000000001000000000000001300000000000000029900000000000083402017022000000010000000000000BRCMIGACNPR3217
012017010278CMIGB9      070CMIG    /EJ PN      N1000R$  000000000001500000000000150000000000015000000000001500000000000150000000000000000000000003000002000000000000009700000000000000145500000000000087402017022000000010000000000000BRCMIGACNPR3217
012017010282CMIGM7      080CMIGE   /EJ PN      N1000R$  000000000000500000000000050000000000005000000000000500000000000050000000000001000000000000000001000000000000000100000000000000000500000000000067402017011600000010000000000000BRCMIGACNPR3217
012017010282CMIGM74     080CMIGE   /EJ PN      N1000R$  000000000000600000000000060000000000006000000000000600000000000060000000000000000000000001200001000000000000000100000000000000000600000000000071402017011600000010000000000000BRCMIGACNPR3217
012017010282CMIGM8      080CMIGE FM/EJ PN      N1000R$  000000000002600000000000260000000000010000000000002500000000000100000000000000000000000000000002000000000000005100000000000000131000000000000077402017011600000010000000000000BRCMIGACNPR3217
012017010212CNES11B     010FII CENESP  CI  ER  MB   R$  000000000970000000000097000000000009600000000000969100000000096900000000009618000000000969000005000000000000000169000000000001637830000000000000009999123100000010000000000000BRCNESCTF001168
012017010202COCE5       010COELCE      PNA          R$  000000000499500000000049950000000004853000000000489400000000048790000000004879000000000489000060000000000000009900000000000048451400000000000000009999123100000010000000000000BRCOCEACNPA3136
012017010296COCE5F      020COELCE      PNA          R$  000000000488700000000048870000000004887000000000488700000000048870000000004701000000000537900001000000000000000025000000000000122175000000000000009999123100000010000000000000BRCOCEACNPA3136
012017010202CPFE3       010CPFL ENERGIAON      NM   R$  000000000252300000000025300000000002514000000000252500000000025260000000002522000000000252601383000000000000411000000000001037941000000000000000009999123100000010000000000000BRCPFEACNOR0126
012017010296CPFE3F      020CPFL ENERGIAON      NM   R$  000000000252100000000025370000000002506000000000252500000000025300000000002520000000000253000064000000000000000919000000000002321192000000000000009999123100000010000000000000BRCPFEACNOR0126
012017010202CPLE3       010COPEL       ON      N1   R$  000000000191300000000019250000000001902000000000191600000000019100000000001910000000000192300043000000000000009700000000000018587800000000000000009999123100000010000000000000BRCPLEACNOR8133
012017010296CPLE3F      020COPEL       ON      N1   R$  000000000193000000000019300000000001918000000000192400000000019180000000001911000000000193600003000000000000000035000000000000067370000000000000009999123100000010000000000000BRCPLEACNOR8133
012017010202CPLE6       010COPEL       PNB     N1   R$  000000000273800000000027490000000002706000000000272600000000027200000000002720000000000273600557000000000000102700000000000280052900000000000000009999123100000010000000000000BRCPLEACNPB9130
